{
  "contractName": "LoanGenie",
  "abi": [
    {
      "inputs": [
        {
          "internalType": "uint8",
          "name": "Lrate",
          "type": "uint8"
        },
        {
          "internalType": "uint8",
          "name": "Brate",
          "type": "uint8"
        }
      ],
      "stateMutability": "payable",
      "type": "constructor",
      "payable": true
    },
    {
      "anonymous": false,
      "inputs": [
        {
          "components": [
            {
              "internalType": "uint256",
              "name": "txnId",
              "type": "uint256"
            },
            {
              "internalType": "address payable",
              "name": "customer",
              "type": "address"
            },
            {
              "internalType": "uint256",
              "name": "value",
              "type": "uint256"
            },
            {
              "internalType": "enum LoanGenie.TxnType",
              "name": "txnType",
              "type": "uint8"
            },
            {
              "internalType": "uint256",
              "name": "timeStamp",
              "type": "uint256"
            },
            {
              "internalType": "uint256",
              "name": "interest",
              "type": "uint256"
            },
            {
              "internalType": "uint256",
              "name": "timePeriod",
              "type": "uint256"
            },
            {
              "internalType": "bool",
              "name": "closed",
              "type": "bool"
            }
          ],
          "indexed": false,
          "internalType": "struct LoanGenie.Transaction",
          "name": "",
          "type": "tuple"
        }
      ],
      "name": "borrow",
      "type": "event"
    },
    {
      "anonymous": false,
      "inputs": [
        {
          "components": [
            {
              "internalType": "uint256",
              "name": "txnId",
              "type": "uint256"
            },
            {
              "internalType": "address payable",
              "name": "customer",
              "type": "address"
            },
            {
              "internalType": "uint256",
              "name": "value",
              "type": "uint256"
            },
            {
              "internalType": "enum LoanGenie.TxnType",
              "name": "txnType",
              "type": "uint8"
            },
            {
              "internalType": "uint256",
              "name": "timeStamp",
              "type": "uint256"
            },
            {
              "internalType": "uint256",
              "name": "interest",
              "type": "uint256"
            },
            {
              "internalType": "uint256",
              "name": "timePeriod",
              "type": "uint256"
            },
            {
              "internalType": "bool",
              "name": "closed",
              "type": "bool"
            }
          ],
          "indexed": false,
          "internalType": "struct LoanGenie.Transaction",
          "name": "",
          "type": "tuple"
        }
      ],
      "name": "lend",
      "type": "event"
    },
    {
      "anonymous": false,
      "inputs": [
        {
          "components": [
            {
              "internalType": "uint256",
              "name": "txnId",
              "type": "uint256"
            },
            {
              "internalType": "address payable",
              "name": "customer",
              "type": "address"
            },
            {
              "internalType": "uint256",
              "name": "value",
              "type": "uint256"
            },
            {
              "internalType": "enum LoanGenie.TxnType",
              "name": "txnType",
              "type": "uint8"
            },
            {
              "internalType": "uint256",
              "name": "timeStamp",
              "type": "uint256"
            },
            {
              "internalType": "uint256",
              "name": "interest",
              "type": "uint256"
            },
            {
              "internalType": "uint256",
              "name": "timePeriod",
              "type": "uint256"
            },
            {
              "internalType": "bool",
              "name": "closed",
              "type": "bool"
            }
          ],
          "indexed": false,
          "internalType": "struct LoanGenie.Transaction",
          "name": "",
          "type": "tuple"
        }
      ],
      "name": "paid",
      "type": "event"
    },
    {
      "anonymous": false,
      "inputs": [
        {
          "components": [
            {
              "internalType": "uint256",
              "name": "txnId",
              "type": "uint256"
            },
            {
              "internalType": "address payable",
              "name": "customer",
              "type": "address"
            },
            {
              "internalType": "uint256",
              "name": "value",
              "type": "uint256"
            },
            {
              "internalType": "enum LoanGenie.TxnType",
              "name": "txnType",
              "type": "uint8"
            },
            {
              "internalType": "uint256",
              "name": "timeStamp",
              "type": "uint256"
            },
            {
              "internalType": "uint256",
              "name": "interest",
              "type": "uint256"
            },
            {
              "internalType": "uint256",
              "name": "timePeriod",
              "type": "uint256"
            },
            {
              "internalType": "bool",
              "name": "closed",
              "type": "bool"
            }
          ],
          "indexed": false,
          "internalType": "struct LoanGenie.Transaction",
          "name": "",
          "type": "tuple"
        }
      ],
      "name": "withdrawn",
      "type": "event"
    },
    {
      "inputs": [
        {
          "internalType": "address",
          "name": "",
          "type": "address"
        },
        {
          "internalType": "uint256",
          "name": "",
          "type": "uint256"
        }
      ],
      "name": "transactions",
      "outputs": [
        {
          "internalType": "uint256",
          "name": "txnId",
          "type": "uint256"
        },
        {
          "internalType": "address payable",
          "name": "customer",
          "type": "address"
        },
        {
          "internalType": "uint256",
          "name": "value",
          "type": "uint256"
        },
        {
          "internalType": "enum LoanGenie.TxnType",
          "name": "txnType",
          "type": "uint8"
        },
        {
          "internalType": "uint256",
          "name": "timeStamp",
          "type": "uint256"
        },
        {
          "internalType": "uint256",
          "name": "interest",
          "type": "uint256"
        },
        {
          "internalType": "uint256",
          "name": "timePeriod",
          "type": "uint256"
        },
        {
          "internalType": "bool",
          "name": "closed",
          "type": "bool"
        }
      ],
      "stateMutability": "view",
      "type": "function",
      "constant": true
    },
    {
      "inputs": [],
      "name": "lendFn",
      "outputs": [],
      "stateMutability": "payable",
      "type": "function",
      "payable": true
    },
    {
      "inputs": [
        {
          "internalType": "uint256",
          "name": "_value",
          "type": "uint256"
        }
      ],
      "name": "borrowFn",
      "outputs": [],
      "stateMutability": "nonpayable",
      "type": "function"
    },
    {
      "inputs": [],
      "name": "getTransactions",
      "outputs": [
        {
          "components": [
            {
              "internalType": "uint256",
              "name": "txnId",
              "type": "uint256"
            },
            {
              "internalType": "address payable",
              "name": "customer",
              "type": "address"
            },
            {
              "internalType": "uint256",
              "name": "value",
              "type": "uint256"
            },
            {
              "internalType": "enum LoanGenie.TxnType",
              "name": "txnType",
              "type": "uint8"
            },
            {
              "internalType": "uint256",
              "name": "timeStamp",
              "type": "uint256"
            },
            {
              "internalType": "uint256",
              "name": "interest",
              "type": "uint256"
            },
            {
              "internalType": "uint256",
              "name": "timePeriod",
              "type": "uint256"
            },
            {
              "internalType": "bool",
              "name": "closed",
              "type": "bool"
            }
          ],
          "internalType": "struct LoanGenie.Transaction[]",
          "name": "",
          "type": "tuple[]"
        }
      ],
      "stateMutability": "view",
      "type": "function",
      "constant": true
    },
    {
      "inputs": [
        {
          "internalType": "uint256",
          "name": "_txnId",
          "type": "uint256"
        }
      ],
      "name": "withdraw",
      "outputs": [],
      "stateMutability": "nonpayable",
      "type": "function"
    },
    {
      "inputs": [
        {
          "internalType": "uint256",
          "name": "_txnId",
          "type": "uint256"
        }
      ],
      "name": "pay",
      "outputs": [],
      "stateMutability": "payable",
      "type": "function",
      "payable": true
    },
    {
      "inputs": [
        {
          "internalType": "uint256",
          "name": "_txnId",
          "type": "uint256"
        }
      ],
      "name": "getPayAmount",
      "outputs": [
        {
          "internalType": "uint256",
          "name": "",
          "type": "uint256"
        },
        {
          "internalType": "uint256",
          "name": "",
          "type": "uint256"
        }
      ],
      "stateMutability": "view",
      "type": "function",
      "constant": true
    },
    {
      "inputs": [
        {
          "internalType": "uint256",
          "name": "_txnId",
          "type": "uint256"
        }
      ],
      "name": "getWithdrawAmount",
      "outputs": [
        {
          "internalType": "uint256",
          "name": "",
          "type": "uint256"
        },
        {
          "internalType": "uint256",
          "name": "",
          "type": "uint256"
        }
      ],
      "stateMutability": "view",
      "type": "function",
      "constant": true
    },
    {
      "inputs": [],
      "name": "adminWithdrawProfits",
      "outputs": [],
      "stateMutability": "nonpayable",
      "type": "function"
    },
    {
      "inputs": [],
      "name": "getBalance",
      "outputs": [
        {
          "internalType": "uint256",
          "name": "",
          "type": "uint256"
        }
      ],
      "stateMutability": "view",
      "type": "function",
      "constant": true
    },
    {
      "inputs": [],
      "name": "addMoneyToContract",
      "outputs": [],
      "stateMutability": "payable",
      "type": "function",
      "payable": true
    }
  ],
  "bytecode": "0x608060405260405162002fb038038062002fb0833981810160405281019062000029919062000101565b81600160006101000a81548160ff021916908360ff160217905550806001806101000a81548160ff021916908360ff160217905550600060048190555060008081905550600060048190555033600160026101000a81548173ffffffffffffffffffffffffffffffffffffffff021916908373ffffffffffffffffffffffffffffffffffffffff160217905550505062000148565b600080fd5b600060ff82169050919050565b620000db81620000c3565b8114620000e757600080fd5b50565b600081519050620000fb81620000d0565b92915050565b600080604083850312156200011b576200011a620000be565b5b60006200012b85828601620000ea565b92505060206200013e85828601620000ea565b9150509250929050565b612e5880620001586000396000f3fe60806040526004361061009c5760003560e01c806359f9c5d51161006457806359f9c5d51461014d5780637c4696091461018b57806383920e90146101b4578063a317f8ca146101df578063c290d691146101f6578063e445dc43146102125761009c565b806312065fe0146100a157806314538128146100cc5780631834ef4e146101105780632e1a7d4d1461011a57806349281fee14610143575b600080fd5b3480156100ad57600080fd5b506100b6610250565b6040516100c39190612031565b60405180910390f35b3480156100d857600080fd5b506100f360048036038101906100ee91906120db565b6102e8565b6040516101079897969594939291906121ce565b60405180910390f35b610118610377565b005b34801561012657600080fd5b50610141600480360381019061013c919061224c565b61044c565b005b61014b610aae565b005b34801561015957600080fd5b50610174600480360381019061016f919061224c565b610dcd565b604051610182929190612279565b60405180910390f35b34801561019757600080fd5b506101b260048036038101906101ad919061224c565b611032565b005b3480156101c057600080fd5b506101c961139f565b6040516101d69190612430565b60405180910390f35b3480156101eb57600080fd5b506101f4611615565b005b610210600480360381019061020b919061224c565b611712565b005b34801561021e57600080fd5b506102396004803603810190610234919061224c565b611c72565b604051610247929190612279565b60405180910390f35b60003373ffffffffffffffffffffffffffffffffffffffff16600160029054906101000a900473ffffffffffffffffffffffffffffffffffffffff1673ffffffffffffffffffffffffffffffffffffffff16146102e2576040517f08c379a00000000000000000000000000000000000000000000000000000000081526004016102d9906124af565b60405180910390fd5b47905090565b6002602052816000526040600020602052806000526040600020600091509150508060000154908060010160009054906101000a900473ffffffffffffffffffffffffffffffffffffffff16908060020154908060030160009054906101000a900460ff16908060040154908060050154908060060154908060070160009054906101000a900460ff16905088565b3373ffffffffffffffffffffffffffffffffffffffff16600160029054906101000a900473ffffffffffffffffffffffffffffffffffffffff1673ffffffffffffffffffffffffffffffffffffffff1614610407576040517f08c379a00000000000000000000000000000000000000000000000000000000081526004016103fe906124af565b60405180910390fd5b6000341161044a576040517f08c379a00000000000000000000000000000000000000000000000000000000081526004016104419061251b565b60405180910390fd5b565b80600260003373ffffffffffffffffffffffffffffffffffffffff1673ffffffffffffffffffffffffffffffffffffffff168152602001908152602001600020600083815260200190815260200160002060000154146104e1576040517f08c379a00000000000000000000000000000000000000000000000000000000081526004016104d890612587565b60405180910390fd5b600060018111156104f5576104f461213c565b5b600260003373ffffffffffffffffffffffffffffffffffffffff1673ffffffffffffffffffffffffffffffffffffffff168152602001908152602001600020600083815260200190815260200160002060030160009054906101000a900460ff1660018111156105685761056761213c565b5b146105a8576040517f08c379a000000000000000000000000000000000000000000000000000000000815260040161059f90612587565b60405180910390fd5b60001515600260003373ffffffffffffffffffffffffffffffffffffffff1673ffffffffffffffffffffffffffffffffffffffff168152602001908152602001600020600083815260200190815260200160002060070160009054906101000a900460ff1615151461064f576040517f08c379a0000000000000000000000000000000000000000000000000000000008152600401610646906125f3565b60405180910390fd5b600080610702600260003373ffffffffffffffffffffffffffffffffffffffff1673ffffffffffffffffffffffffffffffffffffffff168152602001908152602001600020600085815260200190815260200160002060020154600260003373ffffffffffffffffffffffffffffffffffffffff1673ffffffffffffffffffffffffffffffffffffffff168152602001908152602001600020600086815260200190815260200160002060040154611ed7565b809350819250505080600260003373ffffffffffffffffffffffffffffffffffffffff1673ffffffffffffffffffffffffffffffffffffffff1681526020019081526020016000206000858152602001908152602001600020600201546107699190612642565b4710156107ab576040517f08c379a00000000000000000000000000000000000000000000000000000000081526004016107a29061270a565b60405180910390fd5b60078210156107ef576040517f08c379a00000000000000000000000000000000000000000000000000000000081526004016107e69061279c565b60405180910390fd5b80600260003373ffffffffffffffffffffffffffffffffffffffff1673ffffffffffffffffffffffffffffffffffffffff16815260200190815260200160002060008581526020019081526020016000206005018190555081600260003373ffffffffffffffffffffffffffffffffffffffff1673ffffffffffffffffffffffffffffffffffffffff168152602001908152602001600020600085815260200190815260200160002060060181905550600260003373ffffffffffffffffffffffffffffffffffffffff1673ffffffffffffffffffffffffffffffffffffffff168152602001908152602001600020600084815260200190815260200160002060010160009054906101000a900473ffffffffffffffffffffffffffffffffffffffff1673ffffffffffffffffffffffffffffffffffffffff166108fc600260003373ffffffffffffffffffffffffffffffffffffffff1673ffffffffffffffffffffffffffffffffffffffff168152602001908152602001600020600086815260200190815260200160002060050154600260003373ffffffffffffffffffffffffffffffffffffffff1673ffffffffffffffffffffffffffffffffffffffff1681526020019081526020016000206000878152602001908152602001600020600201546109de9190612642565b9081150290604051600060405180830381858888f19350505050158015610a09573d6000803e3d6000fd5b508060046000828254610a1c91906127bc565b925050819055507f98ef636151fd3b658e9e0ca9abbb45887c9d1d0664d1786947a9aa3a85d905d0600260003373ffffffffffffffffffffffffffffffffffffffff1673ffffffffffffffffffffffffffffffffffffffff1681526020019081526020016000206000858152602001908152602001600020604051610aa191906129a5565b60405180910390a1505050565b3373ffffffffffffffffffffffffffffffffffffffff16600160029054906101000a900473ffffffffffffffffffffffffffffffffffffffff1673ffffffffffffffffffffffffffffffffffffffff161415610b3f576040517f08c379a0000000000000000000000000000000000000000000000000000000008152600401610b3690612a33565b60405180910390fd5b60003411610b82576040517f08c379a0000000000000000000000000000000000000000000000000000000008152600401610b799061251b565b60405180910390fd5b610b8a611fa9565b600080815480929190610b9c90612a53565b919050555060405180610100016040528060005481526020013373ffffffffffffffffffffffffffffffffffffffff16815260200134815260200160006001811115610beb57610bea61213c565b5b8152602001428152602001600081526020016000815260200160001515815250905080600260003373ffffffffffffffffffffffffffffffffffffffff1673ffffffffffffffffffffffffffffffffffffffff1681526020019081526020016000206000805481526020019081526020016000206000820151816000015560208201518160010160006101000a81548173ffffffffffffffffffffffffffffffffffffffff021916908373ffffffffffffffffffffffffffffffffffffffff1602179055506040820151816002015560608201518160030160006101000a81548160ff02191690836001811115610ce557610ce461213c565b5b02179055506080820151816004015560a0820151816005015560c0820151816006015560e08201518160070160006101000a81548160ff021916908315150217905550905050600360003373ffffffffffffffffffffffffffffffffffffffff1673ffffffffffffffffffffffffffffffffffffffff16815260200190815260200160002060005490806001815401808255809150506001900390600052602060002001600090919091909150557f94143cfea5ed1ed45b6cfbf82b37080ead78877eda2b13272f1855e2bef37eeb81604051610dc29190612b3e565b60405180910390a150565b60008060008084600260003373ffffffffffffffffffffffffffffffffffffffff1673ffffffffffffffffffffffffffffffffffffffff16815260200190815260200160002060008781526020019081526020016000206000015414610e68576040517f08c379a0000000000000000000000000000000000000000000000000000000008152600401610e5f90612587565b60405180910390fd5b60001515600260003373ffffffffffffffffffffffffffffffffffffffff1673ffffffffffffffffffffffffffffffffffffffff168152602001908152602001600020600087815260200190815260200160002060070160009054906101000a900460ff16151514610f0f576040517f08c379a0000000000000000000000000000000000000000000000000000000008152600401610f0690612ba6565b60405180910390fd5b610fbf600260003373ffffffffffffffffffffffffffffffffffffffff1673ffffffffffffffffffffffffffffffffffffffff168152602001908152602001600020600087815260200190815260200160002060020154600260003373ffffffffffffffffffffffffffffffffffffffff1673ffffffffffffffffffffffffffffffffffffffff168152602001908152602001600020600088815260200190815260200160002060040154611f41565b8092508193505050600260003373ffffffffffffffffffffffffffffffffffffffff1673ffffffffffffffffffffffffffffffffffffffff168152602001908152602001600020600086815260200190815260200160002060020154826110269190612642565b81935093505050915091565b3373ffffffffffffffffffffffffffffffffffffffff16600160029054906101000a900473ffffffffffffffffffffffffffffffffffffffff1673ffffffffffffffffffffffffffffffffffffffff1614156110c3576040517f08c379a00000000000000000000000000000000000000000000000000000000081526004016110ba90612a33565b60405180910390fd5b804711611105576040517f08c379a00000000000000000000000000000000000000000000000000000000081526004016110fc90612c12565b60405180910390fd5b61110d611fa9565b60008081548092919061111f90612a53565b919050555060405180610100016040528060005481526020013373ffffffffffffffffffffffffffffffffffffffff16815260200183815260200160018081111561116d5761116c61213c565b5b8152602001428152602001600081526020016000815260200160001515815250905080600260003373ffffffffffffffffffffffffffffffffffffffff1673ffffffffffffffffffffffffffffffffffffffff1681526020019081526020016000206000805481526020019081526020016000206000820151816000015560208201518160010160006101000a81548173ffffffffffffffffffffffffffffffffffffffff021916908373ffffffffffffffffffffffffffffffffffffffff1602179055506040820151816002015560608201518160030160006101000a81548160ff021916908360018111156112675761126661213c565b5b02179055506080820151816004015560a0820151816005015560c0820151816006015560e08201518160070160006101000a81548160ff021916908315150217905550905050806020015173ffffffffffffffffffffffffffffffffffffffff166108fc82604001519081150290604051600060405180830381858888f193505050501580156112fb573d6000803e3d6000fd5b50600360003373ffffffffffffffffffffffffffffffffffffffff1673ffffffffffffffffffffffffffffffffffffffff16815260200190815260200160002060005490806001815401808255809150506001900390600052602060002001600090919091909150557f450296a4b8598dd9b4162eabfed95d6d5c5ae73c983751aa6d77464b9113a130816040516113939190612b3e565b60405180910390a15050565b60606000600360003373ffffffffffffffffffffffffffffffffffffffff1673ffffffffffffffffffffffffffffffffffffffff1681526020019081526020016000208054905067ffffffffffffffff8111156113ff576113fe612c32565b5b60405190808252806020026020018201604052801561143857816020015b611425611fa9565b81526020019060019003908161141d5790505b50905060005b815181101561160d57600260003373ffffffffffffffffffffffffffffffffffffffff1673ffffffffffffffffffffffffffffffffffffffff1681526020019081526020016000206000600360003373ffffffffffffffffffffffffffffffffffffffff1673ffffffffffffffffffffffffffffffffffffffff16815260200190815260200160002083815481106114d9576114d8612c61565b5b9060005260206000200154815260200190815260200160002060405180610100016040529081600082015481526020016001820160009054906101000a900473ffffffffffffffffffffffffffffffffffffffff1673ffffffffffffffffffffffffffffffffffffffff1673ffffffffffffffffffffffffffffffffffffffff168152602001600282015481526020016003820160009054906101000a900460ff16600181111561158d5761158c61213c565b5b600181111561159f5761159e61213c565b5b81526020016004820154815260200160058201548152602001600682015481526020016007820160009054906101000a900460ff1615151515815250508282815181106115ef576115ee612c61565b5b6020026020010181905250808061160590612a53565b91505061143e565b508091505090565b3373ffffffffffffffffffffffffffffffffffffffff16600160029054906101000a900473ffffffffffffffffffffffffffffffffffffffff1673ffffffffffffffffffffffffffffffffffffffff16146116a5576040517f08c379a000000000000000000000000000000000000000000000000000000000815260040161169c906124af565b60405180910390fd5b600160029054906101000a900473ffffffffffffffffffffffffffffffffffffffff1673ffffffffffffffffffffffffffffffffffffffff166108fc6004549081150290604051600060405180830381858888f1935050505015801561170f573d6000803e3d6000fd5b50565b80600260003373ffffffffffffffffffffffffffffffffffffffff1673ffffffffffffffffffffffffffffffffffffffff168152602001908152602001600020600083815260200190815260200160002060000154146117a7576040517f08c379a000000000000000000000000000000000000000000000000000000000815260040161179e90612587565b60405180910390fd5b6001808111156117ba576117b961213c565b5b600260003373ffffffffffffffffffffffffffffffffffffffff1673ffffffffffffffffffffffffffffffffffffffff168152602001908152602001600020600083815260200190815260200160002060030160009054906101000a900460ff16600181111561182d5761182c61213c565b5b1461186d576040517f08c379a000000000000000000000000000000000000000000000000000000000815260040161186490612587565b60405180910390fd5b60001515600260003373ffffffffffffffffffffffffffffffffffffffff1673ffffffffffffffffffffffffffffffffffffffff168152602001908152602001600020600083815260200190815260200160002060070160009054906101000a900460ff16151514611914576040517f08c379a000000000000000000000000000000000000000000000000000000000815260040161190b90612ba6565b60405180910390fd5b60003411611957576040517f08c379a000000000000000000000000000000000000000000000000000000000815260040161194e90612cdc565b60405180910390fd5b600080611a0a600260003373ffffffffffffffffffffffffffffffffffffffff1673ffffffffffffffffffffffffffffffffffffffff168152602001908152602001600020600085815260200190815260200160002060020154600260003373ffffffffffffffffffffffffffffffffffffffff1673ffffffffffffffffffffffffffffffffffffffff168152602001908152602001600020600086815260200190815260200160002060040154611f41565b809350819250505080600260003373ffffffffffffffffffffffffffffffffffffffff1673ffffffffffffffffffffffffffffffffffffffff168152602001908152602001600020600085815260200190815260200160002060020154611a719190612642565b3414611ab2576040517f08c379a0000000000000000000000000000000000000000000000000000000008152600401611aa990612d48565b60405180910390fd5b80600260003373ffffffffffffffffffffffffffffffffffffffff1673ffffffffffffffffffffffffffffffffffffffff16815260200190815260200160002060008581526020019081526020016000206005018190555081600260003373ffffffffffffffffffffffffffffffffffffffff1673ffffffffffffffffffffffffffffffffffffffff1681526020019081526020016000206000858152602001908152602001600020600601819055506001600260003373ffffffffffffffffffffffffffffffffffffffff1673ffffffffffffffffffffffffffffffffffffffff168152602001908152602001600020600085815260200190815260200160002060070160006101000a81548160ff0219169083151502179055508060046000828254611be09190612642565b925050819055507ffa253e7063aa407ce83fb1f9f3794371d3d92fa9dea09d5fab463231527efe5f600260003373ffffffffffffffffffffffffffffffffffffffff1673ffffffffffffffffffffffffffffffffffffffff1681526020019081526020016000206000858152602001908152602001600020604051611c6591906129a5565b60405180910390a1505050565b60008060008084600260003373ffffffffffffffffffffffffffffffffffffffff1673ffffffffffffffffffffffffffffffffffffffff16815260200190815260200160002060008781526020019081526020016000206000015414611d0d576040517f08c379a0000000000000000000000000000000000000000000000000000000008152600401611d0490612587565b60405180910390fd5b60001515600260003373ffffffffffffffffffffffffffffffffffffffff1673ffffffffffffffffffffffffffffffffffffffff168152602001908152602001600020600087815260200190815260200160002060070160009054906101000a900460ff16151514611db4576040517f08c379a0000000000000000000000000000000000000000000000000000000008152600401611dab90612ba6565b60405180910390fd5b611e64600260003373ffffffffffffffffffffffffffffffffffffffff1673ffffffffffffffffffffffffffffffffffffffff168152602001908152602001600020600087815260200190815260200160002060020154600260003373ffffffffffffffffffffffffffffffffffffffff1673ffffffffffffffffffffffffffffffffffffffff168152602001908152602001600020600088815260200190815260200160002060040154611ed7565b8092508193505050600260003373ffffffffffffffffffffffffffffffffffffffff1673ffffffffffffffffffffffffffffffffffffffff16815260200190815260200160002060008681526020019081526020016000206002015482611ecb9190612642565b81935093505050915091565b6000806000620151808442611eec91906127bc565b611ef69190612d97565b905060006103e8600160009054906101000a900460ff1660ff168388611f1c9190612dc8565b611f269190612dc8565b611f309190612d97565b905080829350935050509250929050565b6000806000620151808442611f5691906127bc565b611f609190612d97565b905060006103e860018054906101000a900460ff1660ff168388611f849190612dc8565b611f8e9190612dc8565b611f989190612d97565b905080829350935050509250929050565b60405180610100016040528060008152602001600073ffffffffffffffffffffffffffffffffffffffff1681526020016000815260200160006001811115611ff457611ff361213c565b5b81526020016000815260200160008152602001600081526020016000151581525090565b6000819050919050565b61202b81612018565b82525050565b60006020820190506120466000830184612022565b92915050565b600080fd5b600073ffffffffffffffffffffffffffffffffffffffff82169050919050565b600061207c82612051565b9050919050565b61208c81612071565b811461209757600080fd5b50565b6000813590506120a981612083565b92915050565b6120b881612018565b81146120c357600080fd5b50565b6000813590506120d5816120af565b92915050565b600080604083850312156120f2576120f161204c565b5b60006121008582860161209a565b9250506020612111858286016120c6565b9150509250929050565b600061212682612051565b9050919050565b6121368161211b565b82525050565b7f4e487b7100000000000000000000000000000000000000000000000000000000600052602160045260246000fd5b6002811061217c5761217b61213c565b5b50565b600081905061218d8261216b565b919050565b600061219d8261217f565b9050919050565b6121ad81612192565b82525050565b60008115159050919050565b6121c8816121b3565b82525050565b6000610100820190506121e4600083018b612022565b6121f1602083018a61212d565b6121fe6040830189612022565b61220b60608301886121a4565b6122186080830187612022565b61222560a0830186612022565b61223260c0830185612022565b61223f60e08301846121bf565b9998505050505050505050565b6000602082840312156122625761226161204c565b5b6000612270848285016120c6565b91505092915050565b600060408201905061228e6000830185612022565b61229b6020830184612022565b9392505050565b600081519050919050565b600082825260208201905092915050565b6000819050602082019050919050565b6122d781612018565b82525050565b6122e68161211b565b82525050565b6122f581612192565b82525050565b612304816121b3565b82525050565b6101008201600082015161232160008501826122ce565b50602082015161233460208501826122dd565b50604082015161234760408501826122ce565b50606082015161235a60608501826122ec565b50608082015161236d60808501826122ce565b5060a082015161238060a08501826122ce565b5060c082015161239360c08501826122ce565b5060e08201516123a660e08501826122fb565b50505050565b60006123b8838361230a565b6101008301905092915050565b6000602082019050919050565b60006123dd826122a2565b6123e781856122ad565b93506123f2836122be565b8060005b8381101561242357815161240a88826123ac565b9750612415836123c5565b9250506001810190506123f6565b5085935050505092915050565b6000602082019050818103600083015261244a81846123d2565b905092915050565b600082825260208201905092915050565b7f41646d696e206163657373207265717569726564000000000000000000000000600082015250565b6000612499601483612452565b91506124a482612463565b602082019050919050565b600060208201905081810360008301526124c88161248c565b9050919050565b7f496e7665737420736f6d65206d6f6e6579206265657463680000000000000000600082015250565b6000612505601883612452565b9150612510826124cf565b602082019050919050565b60006020820190508181036000830152612534816124f8565b9050919050565b7f496e76616c6964205472616e73616374696f6e00000000000000000000000000600082015250565b6000612571601383612452565b915061257c8261253b565b602082019050919050565b600060208201905081810360008301526125a081612564565b9050919050565b7f4d6f6e657920616c72656164792077697468647261776e000000000000000000600082015250565b60006125dd601783612452565b91506125e8826125a7565b602082019050919050565b6000602082019050818103600083015261260c816125d0565b9050919050565b7f4e487b7100000000000000000000000000000000000000000000000000000000600052601160045260246000fd5b600061264d82612018565b915061265883612018565b9250827fffffffffffffffffffffffffffffffffffffffffffffffffffffffffffffffff0382111561268d5761268c612613565b5b828201905092915050565b7f496e73756666696369656e742066756e647320696e20436f6e74726163742c2060008201527f54727920616761696e204c617465720000000000000000000000000000000000602082015250565b60006126f4602f83612452565b91506126ff82612698565b604082019050919050565b60006020820190508181036000830152612723816126e7565b9050919050565b7f4d6f6e65792063616e6e6f742062652077697468647261776e20696e2037646160008201527f7973000000000000000000000000000000000000000000000000000000000000602082015250565b6000612786602283612452565b91506127918261272a565b604082019050919050565b600060208201905081810360008301526127b581612779565b9050919050565b60006127c782612018565b91506127d283612018565b9250828210156127e5576127e4612613565b5b828203905092915050565b60008160001c9050919050565b6000819050919050565b600061281a612815836127f0565b6127fd565b9050919050565b600073ffffffffffffffffffffffffffffffffffffffff82169050919050565b600061285461284f836127f0565b612821565b9050919050565b600060ff82169050919050565b600061287b612876836127f0565b61285b565b9050919050565b600060ff82169050919050565b60006128a261289d836127f0565b612882565b9050919050565b610100820160008083015490506128bf81612807565b6128cc60008601826122ce565b50600183015490506128dd81612841565b6128ea60208601826122dd565b50600283015490506128fb81612807565b61290860408601826122ce565b506003830154905061291981612868565b61292660608601826122ec565b506004830154905061293781612807565b61294460808601826122ce565b506005830154905061295581612807565b61296260a08601826122ce565b506006830154905061297381612807565b61298060c08601826122ce565b50600783015490506129918161288f565b61299e60e08601826122fb565b5050505050565b6000610100820190506129bb60008301846128a9565b92915050565b7f41646d696e2063616e277420706572666f726d2074686973206f70657261746960008201527f6f6e000000000000000000000000000000000000000000000000000000000000602082015250565b6000612a1d602283612452565b9150612a28826129c1565b604082019050919050565b60006020820190508181036000830152612a4c81612a10565b9050919050565b6000612a5e82612018565b91507fffffffffffffffffffffffffffffffffffffffffffffffffffffffffffffffff821415612a9157612a90612613565b5b600182019050919050565b61010082016000820151612ab360008501826122ce565b506020820151612ac660208501826122dd565b506040820151612ad960408501826122ce565b506060820151612aec60608501826122ec565b506080820151612aff60808501826122ce565b5060a0820151612b1260a08501826122ce565b5060c0820151612b2560c08501826122ce565b5060e0820151612b3860e08501826122fb565b50505050565b600061010082019050612b546000830184612a9c565b92915050565b7f4d6f6e657920616c726561647920506169640000000000000000000000000000600082015250565b6000612b90601283612452565b9150612b9b82612b5a565b602082019050919050565b60006020820190508181036000830152612bbf81612b83565b9050919050565b7f496e73756666696369656e742046756e64730000000000000000000000000000600082015250565b6000612bfc601283612452565b9150612c0782612bc6565b602082019050919050565b60006020820190508181036000830152612c2b81612bef565b9050919050565b7f4e487b7100000000000000000000000000000000000000000000000000000000600052604160045260246000fd5b7f4e487b7100000000000000000000000000000000000000000000000000000000600052603260045260246000fd5b7f53656e6420736f6d65206d6f6e65792062656574636800000000000000000000600082015250565b6000612cc6601683612452565b9150612cd182612c90565b602082019050919050565b60006020820190508181036000830152612cf581612cb9565b9050919050565b7f56616c75652073656e74206e6f7420657175616c204c6f616e20616d6f756e74600082015250565b6000612d32602083612452565b9150612d3d82612cfc565b602082019050919050565b60006020820190508181036000830152612d6181612d25565b9050919050565b7f4e487b7100000000000000000000000000000000000000000000000000000000600052601260045260246000fd5b6000612da282612018565b9150612dad83612018565b925082612dbd57612dbc612d68565b5b828204905092915050565b6000612dd382612018565b9150612dde83612018565b9250817fffffffffffffffffffffffffffffffffffffffffffffffffffffffffffffffff0483118215151615612e1757612e16612613565b5b82820290509291505056fea26469706673582212207f031fcea24d7c54b478d40517447d7a20642035a2739c461265032bdcc5e30a64736f6c63430008090033",
  "immutableReferences": {},
  "source": "//SPDX-License-Identifier: UNLICENSED\r\npragma solidity 0.8.9;\r\n\r\ncontract LoanGenie {\r\n    enum TxnType {\r\n        Lend,\r\n        Borrow\r\n    }\r\n\r\n    struct Transaction {\r\n        uint256 txnId;\r\n        address payable customer;\r\n        uint256 value;\r\n        TxnType txnType;\r\n        uint256 timeStamp;\r\n        uint256 interest;\r\n        uint256 timePeriod;\r\n        bool closed;\r\n    }\r\n\r\n    uint256 txnNo;\r\n    uint8 lendRate;\r\n    uint8 borrowRate;\r\n    address payable admin;\r\n    mapping(address => mapping(uint256 => Transaction)) public transactions;\r\n    mapping(address => uint256[]) userTxns;\r\n    uint256 adminEarnings;\r\n\r\n    event lend(Transaction);\r\n    event borrow(Transaction);\r\n    event withdrawn(Transaction);\r\n    event paid(Transaction);\r\n\r\n    constructor(uint8 Lrate, uint8 Brate) payable {\r\n        lendRate = Lrate;\r\n        borrowRate = Brate;\r\n        adminEarnings = 0;\r\n        txnNo = 0;\r\n        adminEarnings = 0;\r\n        admin = payable(msg.sender);\r\n    }\r\n\r\n    modifier notAdmin() {\r\n        require(admin != msg.sender, \"Admin can't perform this operation\");\r\n        _;\r\n    }\r\n\r\n    modifier onlyAdmin() {\r\n        require(admin == msg.sender, \"Admin acess required\");\r\n        _;\r\n    }\r\n\r\n    function lendFn() public payable notAdmin {\r\n        require(msg.value > 0, \"Invest some money beetch\");\r\n        Transaction memory _txn;\r\n        txnNo++;\r\n        _txn = Transaction(\r\n            txnNo,\r\n            payable(msg.sender),\r\n            msg.value,\r\n            TxnType.Lend,\r\n            block.timestamp,\r\n            0,\r\n            0,\r\n            false\r\n        );\r\n        transactions[msg.sender][txnNo] = _txn;\r\n        userTxns[msg.sender].push(txnNo);\r\n        emit lend(_txn);\r\n    }\r\n\r\n    function borrowFn(uint256 _value) public notAdmin {\r\n        require(address(this).balance > _value, \"Insufficient Funds\");\r\n        Transaction memory _txn;\r\n        txnNo++;\r\n        _txn = Transaction(\r\n            txnNo,\r\n            payable(msg.sender),\r\n            _value,\r\n            TxnType.Borrow,\r\n            block.timestamp,\r\n            0,\r\n            0,\r\n            false\r\n        );\r\n        transactions[msg.sender][txnNo] = _txn;\r\n        _txn.customer.transfer(_txn.value);\r\n        userTxns[msg.sender].push(txnNo);\r\n        emit borrow(_txn);\r\n    }\r\n\r\n    function getTransactions() public view returns (Transaction[] memory) {\r\n        Transaction[] memory _txns = new Transaction[](\r\n            userTxns[msg.sender].length\r\n        );\r\n        for (uint256 i = 0; i < _txns.length; i++) {\r\n            _txns[i] = transactions[msg.sender][userTxns[msg.sender][i]];\r\n        }\r\n        return _txns;\r\n    }\r\n\r\n    function withdraw(uint256 _txnId) public {\r\n        require(\r\n            transactions[msg.sender][_txnId].txnId == _txnId,\r\n            \"Invalid Transaction\"\r\n        );\r\n        require(\r\n            transactions[msg.sender][_txnId].txnType == TxnType.Lend,\r\n            \"Invalid Transaction\"\r\n        );\r\n        require(\r\n            transactions[msg.sender][_txnId].closed == false,\r\n            \"Money already withdrawn\"\r\n        );\r\n        uint256 _time;\r\n        uint256 _i;\r\n        (_i, _time) = calcLendInterest(\r\n            transactions[msg.sender][_txnId].value,\r\n            transactions[msg.sender][_txnId].timeStamp\r\n        );\r\n        require(\r\n            address(this).balance >=\r\n                (transactions[msg.sender][_txnId].value + _i),\r\n            \"Insufficient funds in Contract, Try again Later\"\r\n        );\r\n        require(_time >= 7, \"Money cannot be withdrawn in 7days\");\r\n        transactions[msg.sender][_txnId].interest = _i;\r\n        transactions[msg.sender][_txnId].timePeriod = _time;\r\n        transactions[msg.sender][_txnId].customer.transfer(\r\n            transactions[msg.sender][_txnId].value +\r\n                transactions[msg.sender][_txnId].interest\r\n        );\r\n        adminEarnings -= _i;\r\n        emit withdrawn(transactions[msg.sender][_txnId]);\r\n    }\r\n\r\n    function pay(uint256 _txnId) public payable {\r\n        require(\r\n            transactions[msg.sender][_txnId].txnId == _txnId,\r\n            \"Invalid Transaction\"\r\n        );\r\n        require(\r\n            transactions[msg.sender][_txnId].txnType == TxnType.Borrow,\r\n            \"Invalid Transaction\"\r\n        );\r\n        require(\r\n            transactions[msg.sender][_txnId].closed == false,\r\n            \"Money already Paid\"\r\n        );\r\n        require(msg.value > 0, \"Send some money beetch\");\r\n        uint256 _time;\r\n        uint256 _i;\r\n        (_i, _time) = calcBorrowInterest(\r\n            transactions[msg.sender][_txnId].value,\r\n            transactions[msg.sender][_txnId].timeStamp\r\n        );\r\n        require(\r\n            msg.value == (transactions[msg.sender][_txnId].value + _i),\r\n            \"Value sent not equal Loan amount\"\r\n        );\r\n        transactions[msg.sender][_txnId].interest = _i;\r\n        transactions[msg.sender][_txnId].timePeriod = _time;\r\n        transactions[msg.sender][_txnId].closed = true;\r\n        adminEarnings += _i;\r\n        emit paid(transactions[msg.sender][_txnId]);\r\n    }\r\n\r\n    function calcLendInterest(uint256 p, uint256 t)\r\n        internal\r\n        view\r\n        returns (uint256, uint256)\r\n    {\r\n        uint256 time = (block.timestamp - t) / 86400; // Converting Unix timestamp into days.\r\n        uint256 i = (p * time * lendRate) / 1000;\r\n        return (i, time);\r\n    }\r\n\r\n    function calcBorrowInterest(uint256 p, uint256 t)\r\n        internal\r\n        view\r\n        returns (uint256, uint256)\r\n    {\r\n        uint256 time = (block.timestamp - t) / 86400; // Converting Unix timestamp into days.\r\n        uint256 i = (p * time * borrowRate) / 1000;\r\n        return (i, time);\r\n    }\r\n\r\n    function getPayAmount(uint256 _txnId)\r\n        public\r\n        view\r\n        returns (uint256, uint256)\r\n    {\r\n        uint256 _i;\r\n        uint256 _time;\r\n        require(\r\n            transactions[msg.sender][_txnId].txnId == _txnId,\r\n            \"Invalid Transaction\"\r\n        );\r\n        require(\r\n            transactions[msg.sender][_txnId].closed == false,\r\n            \"Money already Paid\"\r\n        );\r\n        (_i, _time) = calcBorrowInterest(\r\n            transactions[msg.sender][_txnId].value,\r\n            transactions[msg.sender][_txnId].timeStamp\r\n        );\r\n        return (_i + transactions[msg.sender][_txnId].value, _time);\r\n    }\r\n\r\n    function getWithdrawAmount(uint256 _txnId)\r\n        public\r\n        view\r\n        returns (uint256, uint256)\r\n    {\r\n        uint256 _i;\r\n        uint256 _time;\r\n        require(\r\n            transactions[msg.sender][_txnId].txnId == _txnId,\r\n            \"Invalid Transaction\"\r\n        );\r\n        require(\r\n            transactions[msg.sender][_txnId].closed == false,\r\n            \"Money already Paid\"\r\n        );\r\n        (_i, _time) = calcLendInterest(\r\n            transactions[msg.sender][_txnId].value,\r\n            transactions[msg.sender][_txnId].timeStamp\r\n        );\r\n        return (_i + transactions[msg.sender][_txnId].value, _time);\r\n    }\r\n\r\n    function adminWithdrawProfits() public onlyAdmin {\r\n        admin.transfer(adminEarnings);\r\n    }\r\n\r\n    function getBalance() public view onlyAdmin returns (uint256) {\r\n        return (address(this).balance);\r\n    }\r\n\r\n    function addMoneyToContract() public payable onlyAdmin {\r\n        require(msg.value > 0, \"Invest some money beetch\");\r\n    }\r\n}\r\n",
  "sourcePath": "E:\\BlockChain\\Loan Genie\\contracts\\LoanGenie.sol",
  "compiler": {
    "name": "solc",
    "version": "0.8.9+commit.e5eed63a.Emscripten.clang"
  },
  "schemaVersion": "3.4.3",
  "updatedAt": "2021-11-17T17:16:24.161Z",
  "networkType": "ethereum",
  "devdoc": {
    "kind": "dev",
    "methods": {},
    "version": 1
  },
  "userdoc": {
    "kind": "user",
    "methods": {},
    "version": 1
  }
}